:1070000055C000006EC000006CC000006AC00000E7
:1070100068C0000066C0000064C0000062C00000DC
:1070200060C000005EC000003AC500005AC0000009
:1070300058C0000056C0000054C0000052C00000FC
:1070400050C000004EC000004CC000004AC000000C
:1070500048C0000046C0000044C0000042C000001C
:1070600040C000003EC000003CC000003AC000002C
:1070700038C0000036C0000034C0000032C000003C
:1070800030C000002EC000002CC000002AC000004C
:1070900028C0000026C0000024C0000022C000005C
:1070A00020C000001EC000001CC0000011241FBE34
:1070B000CFEFDAE0DEBFCDBF11E0A0E0B1E0ECEB56
:1070C000FDE702C005900D92A236B107D9F711E095
:1070D000A2E6B1E001C01D92AF37B107E1F78FD34F
:1070E0006BC68ECF482F1CC02091F3008091F20018
:1070F000322F20E090E0822B932B892B71F480912A
:10710000E8008B7F8093E80003C08EB3882351F0A2
:107110008091E80082FFF9CF02C08091F1004150D8
:10712000442311F7089520917101309170018091ED
:107130006F0190916E018093680190936901C9017C
:1071400080936A0190936B01089580916201882376
:10715000D9F080916C01843049F480916D018823CD
:1071600039F480916E018F3F19F40EC0853061F0C3
:107170008AE08093010183E0809364018091EB00B9
:1071800080628093EB00089580916C01843009F453
:107190005AC0853030F4813059F0833009F0C5C0D1
:1071A0001FC0853009F4A1C0863009F0BEC0B1C04F
:1071B00080916D01823008F0B8C0B5DF80916D011B
:1071C000882361F4809168019091690123E0FC01BA
:1071D00020935700E89507B600FCFDCF85E008C076
:1071E00080916D01882311F0823029F49CDF89E0C1
:1071F000809301010895813009F097C020E030E0CC
:1072000040E050E0F90184918F3F81F0CA01AA2744
:10721000BB278093670130936901209368018AE05E
:107220008093010185E08093640108952F5F3F4FB3
:107230004F4F5F4F2030F0E73F07F0E04F07F0E09F
:107240005F0701F7089580916D01833051F581E06A
:10725000809363018091720190917301892B71F089
:1072600080916E01813009F03EC080917101909152
:107270007001909366018093650135C080916E0125
:10728000882361F42CE088E190E00FB6F894A8958B
:10729000809360000FBE2093600025C01092000113
:1072A00022C0882301F580916E018F3FE1F4E0E078
:1072B000F0E093E085E090935700E89507B600FC76
:1072C000FDCF80935700E89507B600FCFDCFE0584E
:1072D000FF4F20E7E030F20771F781E1809357001C
:1072E000E89510926201469A0895E0916E018091AE
:1072F0006D01882321F4F0E0EB5FFE4F05C0813083
:1073000031F4F0E0EE52FF4F808180937401469893
:10731000089580916D01833041F480916E0188233E
:1073200021F480916F018093670108952F923F921D
:107330004F925F926F927F928F929F92AF92BF9285
:10734000CF92DF92EF92FF920F931F93DF93CF9331
:1073500000D0CDB7DEB780917D0190917E019093F2
:1073600073018093720180917801833009F4D7C151
:10737000843030F4813071F0823009F006C22AC1C5
:10738000853009F4EAC1853008F4DFC1863009F0A0
:10739000FCC1F2C18091E800877F8093E800809172
:1073A0006301882319F0D1DE1092630120917201EC
:1073B000309173012115310529F432C08EB3882331
:1073C00009F4E3C18091E80082FFF8CF8091F100D9
:1073D00080936C01A9014150504050937301409338
:1073E0007201EDE6F1E00CC08091F1008193415013
:1073F000504081E0E237F80719F4518340830FC011
:107400002091F3008091F200322F20E090E0822B57
:10741000932B892B49F7509373014093720195DEAA
:1074200080910101853009F0D1C080917201909165
:107430007301892B21F482E080930101C7C08AE1A6
:1074400051DE809168018F714DDE80906A019090CD
:107450006B0120916801309169010894811C911C95
:107460007401E21AF30A08948108910880916D0171
:10747000882309F0A6C0170136942794C901A0916A
:107480006701B0E0AC01BD01E2E0EE2EF12C012D70
:10749000112DE40EF51E061F171F5A016B0155240E
:1074A0006624639435E0732E23E0422E51C0209170
:1074B000F3008091F200322F20E090E0822B932B9A
:1074C000892B71F48091E8008B7F8093E80004C0E1
:1074D0008EB3882309F459C18091E80082FFF8CF68
:1074E0000894210831088091F10089838091F1008E
:1074F0008A83F50189819A810C0160925700E89591
:107500001124539490E4591619F021143104A1F474
:10751000FA0170925700E89507B600FCFDCF2114E0
:10752000310451F0F70140925700E89507B600FC8E
:10753000FDCFB801A701552482E090E0A0E0B0E0C3
:10754000E80EF91E0A1F1B1FA80EB91ECA1EDB1E5D
:107550002114310409F0ABCF909269018092680147
:1075600081E180935700E8952FC02091F30080912E
:10757000F200122F00E090E0802B912B892B71F408
:107580008091E8008B7F8093E80004C08EB388234D
:1075900009F4FBC08091E80082FFF8CF6091F10010
:1075A0008091680190916901F9D38091680190916F
:1075B0006901019690936901809368010894E1083C
:1075C000F108E114F10489F680E18CDD8091E80096
:1075D0008B7FCFC08091E800877F8093E80004C054
:1075E0008EB3882309F4D1C08091E80080FFF8CFE2
:1075F00080910101893091F08A3069F480916D01A8
:10760000813049F480916801909169018093F10083
:107610009093F100ABC080917401A6C0C0906A0144
:10762000D0906B0120916801309169010894C11CD0
:10763000D11C7601E21AF30A0894C108D10880919E
:107640006D018823C1F5870116950795C901A091A1
:107650006701B0E0AC01BD0126C02091F30080912C
:10766000F200322F20E090E0822B932B809771F470
:107670008091E8008E7F8093E80004C08EB3882359
:1076800009F483C08091E80080FFF8CFFA0185916A
:1076900094918093F1009093F100015010404E5F5F
:1076A0005F4F6F4F7F4F01151105B9F6D0926901F9
:1076B000C092680130C0823071F52AC02091F30079
:1076C0008091F200D22ECC2490E08C299D298097C5
:1076D00071F48091E8008E7F8093E80004C08EB33F
:1076E000882309F452C08091E80080FFF8CF009110
:1076F000680110916901C80149D38093F1000F5FBF
:107700001F4F10936901009368010894E108F10884
:10771000E114F10499F682E08093010127C0809181
:10772000E800877F8093E800809164018093F100F6
:107730001092F1001092F1001092F100809101017D
:107740008093F1001092F10011C08091E800877FD2
:107750008093E8001092640117C08091E800877F51
:107760008093E800809101018093F1008091E8000E
:107770008E7F8093E80008C08091E800877F809327
:10778000E80082E08093010194D00F900F90CF9198
:10779000DF911F910F91FF90EF90DF90CF90BF90FE
:1077A000AF909F908F907F906F905F904F903F90A1
:1077B0002F90089548D17698469881E085BF15BEF0
:1077C000089584B7877F84BF88E10FB6F8948093CB
:1077D0006000109260000FBE80E090E020E80FB6DD
:1077E000F89420936100809361000FBE81E085BF13
:1077F00082E085BF6E9A3E9A1CD1769A0895E1DFA9
:10780000789401C0BAD2809100018823D9F7809181
:1078100063018823B9F7CEDFE0916501F09166013D
:107820000995FA01923071F0933089F0913029F482
:1078300088E091E022E130E019C080E090E020E0B3
:1078400030E014C08AE191E02BE130E00FC08823E2
:1078500039F480913501282F30E085E391E006C0AE
:1078600080913901282F30E089E391E09183808372
:10787000C90108958091EB0081608093EB00109224
:10788000ED006093EC004093ED008091EE00881FC6
:107890008827881F08951092F4001092F00010922B
:1078A000E8001092ED00EBEEF0E080818E7F8083A7
:1078B00008958091770188238CF403C08EB38823C8
:1078C000B1F08091E80082FFF9CF8091E8008B7FD2
:1078D0008093E80008958EB3882349F08091E800F2
:1078E00080FFF9CF8091E8008E7F8093E8000895B3
:1078F0009C0140917D0150917E014617570718F475
:10790000F90120E03BC06115710511F0AB01F8CF22
:107910008091E8008E7F8093E80040E050E0F0CF57
:107920008091E80083FF02C081E008958091E80023
:1079300082FD30C08EB3882399F18EB3853091F1EA
:107940008091E80080FF1AC08091F3009091F200CE
:10795000906006C081918093F100415050409F5F3C
:107960004115510511F09032A8F320E0903209F44E
:1079700021E08091E8008E7F8093E8004115510559
:1079800079F6222369F606C08EB3882349F08EB3B8
:10799000853041F08091E80082FFF6CF80E00895C5
:1079A00082E0089583E008956DD074D01EBA1092DD
:1079B00075018AE482BF19BC89B5826089BD09B4AA
:1079C00000FEFDCF8091D800982F9F779093D8002C
:1079D00080688093D8008091D70081608093D70021
:1079E0008091D8008F7D8093D8008091E0008B7FBC
:1079F0008093E0008091E0008E7F8093E000809192
:107A0000E1008E7F8093E1008091E20081608093AD
:107A1000E2008091E100877F8093E1008091E200A5
:107A200088608093E2008091D80081608093D800C4
:107A30000895BADFE8EDF0E080818061808381E025
:107A40008093760108950F931F93AEDFE0EEF0E090
:107A500080818160808308ED10E0F80180818F775C
:107A6000808310D017D019BCE7EDF0E080818E7FC5
:107A70008083F80180818F7E8083109276011F9130
:107A80000F910895E8EDF0E080818E7F8083109261
:107A9000E20008951092DA001092E10008951F921A
:107AA0000F920FB60F9211242F933F934F935F9332
:107AB0006F937F938F939F93AF93BF93EF93FF93B6
:107AC0008091DA0080FF13C08091D80080FF0FC042
:107AD0008091DA008E7F8093DA008091D90080FF58
:107AE00004C081E08EBB48D102C01EBA45D180914E
:107AF000E10080FF1CC08091E20080FF18C08091EF
:107B0000E1008E7F8093E1008091E2008E7F809380
:107B1000E2008091E20080618093E2008091D800D1
:107B200080628093D80019BC85E08EBB25D18091FE
:107B3000E10084FF28C08091E20084FF24C019BCCA
:107B400089B5826089BD09B400FEFDCF8091D8005F
:107B50008F7D8093D8008091E1008F7E8093E1003B
:107B60008091E2008F7E8093E2008091E20081604C
:107B70008093E20080917501882311F483E001C0B5
:107B800084E08EBBF9D08091E10083FF22C0809118
:107B9000E20083FF1EC08091E100877F8093E100B7
:107BA00082E08EBB109275018091E1008E7F809300
:107BB000E1008091E2008E7F8093E2008091E200FC
:107BC00080618093E20067DE80E060E042E252DEA6
:107BD000D3D08091E10082FF0AC08091E20082FF51
:107BE00006C08091E1008B7F8093E100C5D0FF91BA
:107BF000EF91BF91AF919F918F917F916F915F9125
:107C00004F913F912F910F900FBE0F901F9018959D
:107C10001F93DF93CF9300D0CDB7DEB7E7E7F1E056
:107C20008091F100819381E0EF37F807C9F79091D7
:107C3000770180917801853011F1863040F48130F0
:107C4000B9F0813070F0833009F081C011C0883004
:107C500009F453C0893009F462C0863009F077C056
:107C60002DC0903809F474C0923809F070C070C00B
:107C7000992309F46DC0923009F069C069C0992355
:107C800009F065C0109179018091E800877F8093A9
:107C9000E8000FDE04C08EB3882309F459C0809138
:107CA000E80080FFF8CF812F8F7711F492E001C0B8
:107CB00093E09EBB80688093E3004AC09058923066
:107CC00008F045C08091790190917A0160917B0123
:107CD000AE014F5F5F4FA5DDBC010097C9F18091F8
:107CE000E800877F8093E80089819A8101DE809196
:107CF000E8008B7F8093E8002BC0903841F580919D
:107D0000E800877F8093E800809175018093F100FF
:107D10008091E8008E7F8093E800CBDD19C0992325
:107D2000B1F490917901923098F48091E800877FC6
:107D30008093E80090937501BCDD809175018823E4
:107D400011F483E001C084E08EBB16D001C0EEDAEE
:107D50008091E80083FF0AC08091EB0080628093ED
:107D6000EB008091E800877F8093E8000F900F90F0
:107D7000CF91DF911F91089508958EB3882329F044
:107D80008091E80083FF01C043CF0895F999FECFA9
:107D900092BD81BDF89A992780B50895262FF9994B
:107DA000FECF1FBA92BD81BD20BD0FB6F894FA9ADE
:0C7DB000F99A0FBE01960895F894FFCFD9
:107DBC0001021E958720DCFB12011001000000203F
:107DCC00EB03F42F00000001000109021B0001016C
:107DDC000080320904000000FE01020009210300AA
:107DEC0000000C0001040309042603410056005254
:107DFC00002000440046005500200042006F006F38
:107E0C000074006C006F006100640065007200007B
:027E1C00000064
:040000030000700089
:00000001FF
