:1000000040C1000066C1000064C1000062C1000080
:1000100060C100005EC100005CC100005AC1000068
:1000200058C1000056C100000C940F1B0C94A0197D
:1000300050C100004EC100004CC100004AC1000088
:1000400048C1000046C1000044C1000042C1000098
:1000500040C100003EC100003CC100000C947A1871
:1000600038C100000C94C91B0C94F01B0C941B1C91
:1000700030C100002EC100002CC100002AC10000C8
:1000800028C1000026C1000024C1000022C10000D8
:100090000C94FB141EC100001CC100001AC100001A
:1000A00018C1000016C1000014C100007772697405
:1000B0006520686561646572206661696C656400CD
:1000C00066696C652E637265617465006F70656E3C
:1000D000526F6F74206661696C656400766F6C7531
:1000E0006D652E696E6974206661696C6564006374
:1000F0006172642E696E6974206661696C65640062
:100100005344206572726F723A2000534420657226
:10011000726F723A20006572726F723A20007379C2
:100120006E63206661696C6564007772697465202E
:1001300064617461206661696C6564007C3C3E5E4C
:100140002B3D3F2F5B5D3B2C2A225C0001230223C9
:100150000423082380230129022904290829402691
:10016000802640298029102320234023802F402FE0
:10017000202F102F022F012F10292029402C7DFD28
:100180007DFB7DF77DEF7DDF7E7F7EBF7EDF7EEFB7
:100190007EFD7EFE7DFE0001040506070D0C0B0AA8
:1001A00009080A0B0C0D07060504010008000100F0
:1001B00000E1011200020000F301430003000036D9
:1001C0000204010309043A02180203090454021646
:1001D000030309046C020C0001C102018036018195
:1001E000361201000202000020C016830400010143
:1001F00002030109024300020100C03209040000A9
:10020000010202010005240010010524010101047E
:1002100024020605240600010705820308004009A0
:10022000040100020A000000070503024000000765
:10023000058402400000040309041803540065000B
:1002400065006E00730079006400750069006E003F
:100250006F000000160355005300420020005300B9
:1002600065007200690061006C0000000C03310041
:1002700032003300340035000000DC014C14FB1E5A
:10028000D70111241FBECFEFDAE0DEBFCDBF11E0F2
:10029000A0E0B1E0EAEEF4E402C005900D92AA38C5
:1002A000B107D9F715E0AAE8B1E001C01D92A2326A
:1002B000B107E1F712E0C0E8D2E004C02297FE01E6
:1002C0000E946522CA37D107C9F70E94941C0C947A
:1002D000692296CEFB01DC0104C08D91019080194A
:1002E00021F441505040C8F7881B990B0895FB0139
:1002F000DC0102C001900D9241505040D8F70895A2
:10030000FB01DC0101900D920020E1F7089581309E
:10031000910509F042C06F5F7F4F09F047C082E747
:1003200091E090938F0180938E0180E991E060E0ED
:100330000E94761610929D0110929E011092A101CA
:100340001092A30182E090E0A0E0B0E08093A401CD
:100350009093A501A093A601B093A7011092BB01B1
:100360008EE591E09093C3018093C2011092C60183
:100370009093DF018093DE011092E2018BEF91E018
:1003800060E071E00E9408208091FF0190910002DE
:1003900090930302809302020895892B39F46F5FD2
:1003A0007F4F21F48BEF91E00C94601F089580E063
:1003B00090E06FEF7FEFABCF81E090E06FEF7FEFEA
:1003C000A6CF40E05CC50F931F93CF93DF93EC0162
:1003D0008B0141E00E942210882311F081E005C0CA
:1003E000CE01B80140E00E942210DF91CF911F9111
:1003F0000F910895CF93DF93EC0105C08CE195E058
:100400000E94D11C2196FE0164916623B9F7DF9109
:10041000CF910895EFDF8CE195E00C94E91CCF9328
:10042000DF93EC0180913C01E82FF0E00E94A217DD
:1004300086E191E0DFDFCE01EDDF80919D01882331
:1004400009F44AC08BE091E0D5DF40919D0150E076
:1004500060E070E08CE195E020E130E00E949B1DBF
:100460008CE195E06CE20E94D91C4091A20150E021
:1004700060E070E08CE195E020E130E00E94B11D89
:100480008EE891E061E071E00E94E11C8EE891E06D
:10049000BE010E94E11C8EE891E069E071E00E94DB
:1004A000E11C40919D0150E060E070E08EE891E039
:1004B00020E130E00E949B1D8EE891E06CE20E94FA
:1004C000D91C4091A20150E060E070E08EE891E01C
:1004D00020E130E00E94B11D80914201E82FF0E060
:1004E0000E94A21780914601E82FF0E00E94A21717
:1004F00080E091E07FDF40919D0150E060E070E09E
:100500008CE195E020E130E00E949B1D8CE195E0BC
:100510006CE20E94D91C4091A20150E060E070E0C2
:100520008CE195E020E130E00E94B11D8EE891E081
:100530006BE071E00E94051D8EE891E00E94891B2E
:10054000892B79F08EE891E00E94AA1B8093FA0132
:10055000823719F40C94000004C08EE891E00E94E8
:10056000C41B64EF71E080E090E00E94BA188091B3
:100570004201E82FF0E00E94A81780914601E82F81
:10058000F0E00E94A81764EF71E080E090E00E9424
:10059000BA18A2CFEF92FF920F931F93DF93CF93DE
:1005A000CDB7DEB72D970FB6F894DEBF0FBECDBF27
:1005B00080913C010E94911780913E010E94911709
:1005C000809140010E949117809142010E949117F1
:1005D000809144010E949117809146010E949117D9
:1005E000809148010E94911780913C01E82FF0E032
:1005F0000E94A21780913E01E82FF0E00E94A2170E
:1006000080914001E82FF0E00E94A2178091420102
:10061000E82FF0E00E94A21780914401E82FF0E05B
:100620000E94A81780914601E82FF0E00E94A217CF
:1006300080914801E82FF0E00E94A81780E991E03E
:1006400060E142E020E00E94F11680E991E061E083
:100650000E94E51680E991E06DE071E00E94051DC1
:1006600080913C01E82FF0E00E94A81780913E01A4
:10067000E82FF0E00E94A81780914001E82FF0E0F9
:100680000E94A81780914201E82FF0E00E94A8176D
:1006900080914401E82FF0E00E94A8178091460164
:1006A000E82FF0E00E94A81780914801E82FF0E0C1
:1006B0000E94A81788E991E061E083DE882319F49D
:1006C0008FEE90E0ACDE84EA91E068E971E07BDED9
:1006D000882319F48CED90E0A2DE82EC91E064EACC
:1006E00071E00E947A0B882319F48CEC90E097DE7D
:1006F000DE011196EBE2F1E08DE001900D92815068
:10070000E1F700E07E010894E11CF11C802F6AE013
:100710000E943522805D8F83802F0E943522905D5C
:1007200098878EED91E062EC71E0A70122E30E94D0
:10073000890E882319F40F5F043641F78091E20196
:10074000882319F480EC90E06ADE8CE195E063E1A7
:1007500071E00E94E11C8CE195E08E010F5F1F4F5C
:10076000B8010E94051D8EE891E060E271E00E94F0
:10077000E11C8EE891E0B8010E94051D80E991E03E
:10078000B8010E94E11C8091E001882329F48EEDDC
:1007900091E048D5882319F48CEA90E040DE80E9A6
:1007A00091E00E94DE1680E991E060E00E94E5168B
:1007B0002D960FB6F894DEBF0FBECDBFCF91DF915F
:1007C0001F910F91FF90EF900895CF93DF931092B8
:1007D000E0010FB6F8948091A6049091A704A0912F
:1007E000A804B091A9040FBE60E070E080E090E042
:1007F0000E94BA188EE891E00E94891B892B29F586
:100800003DC080914A0190914B01892B71F060911C
:100810000402709105026E5C7F4F70930502609335
:10082000040280913E010E94ED188EE891E00E9442
:10083000AA1B682F833429F480E991E00E94DE1618
:1008400004C08BEF91E00E94BC1F8EE891E00E94F3
:10085000891B18161906ACF28EED91E06BEF71E072
:100860000E94BA1D8CE195E06BEF71E00E94BA1D09
:1008700080E991E06BEF71E00E94BA1D8091E00188
:10088000882319F08AE291E0CADD0FB6F8948091CE
:10089000A6049091A704A091A804B091A9040FBE4A
:1008A00020918A0130918B0140918C0150918D01F2
:1008B000821B930BA40BB50B885E9340A040B04005
:1008C00008F455C00FB6F8948091A6049091A7043F
:1008D000A091A804B091A9040FBE80938A019093BF
:1008E0008B01A0938C01B0938D018EED91E09AD491
:1008F000882381F480913A01E82FF0E00E94A81744
:1009000080913801E82FF0E00E94A8178EE191E075
:1009100086DD27C080914A0190914B01892B09F116
:1009200080913A01E82FF0E00E94A81780913801E9
:10093000E82FF0E00E94A817CFEFD0E080913801B7
:10094000BE010E94ED1861E070E080E090E00E943E
:10095000BA18219799F780913801E82FF0E00E94AA
:10096000A81780913A01E82FF0E00E94A817DF91C4
:10097000CF9108950F931F938EE891E069E070E0A6
:100980004FEF0E945F1C0CE115E0C80140E855E202
:1009900060E070E00E94021FC8010E94E91CFADDBD
:1009A0001F910F910895FC01673020F086E1858347
:1009B00080E00895262F30E060FD02C0663019F413
:1009C0008DB58E7F02C08DB581608DBD8CB58C7F5D
:1009D0008CBD4CB522FD02C090E001C092E036957E
:1009E0002795822F8170842B892B8CBD81E00895FF
:1009F000FC018481E82FF0E00C94A817FC018481AD
:100A0000E82FF0E00C94A217DC016EBDFA0120E0A3
:100A100030E00DB407FEFDCF80818EBD0DB407FE22
:100A2000FDCF81818EBD2E5F3F4F329682E0203018
:100A3000380779F70DB407FEFDCF8FEF8EBD0DB4EB
:100A400007FEFDCF8FEF8EBD0DB407FEFDCF8FEFFC
:100A50008EBD0DB407FEFDCF8EB51A968C931A97F6
:100A60008F71853011F481E0089581E115968C93A2
:100A70001597CD01C3DF80E00895FC010FB6F8940F
:100A80008091A6049091A704A091A804B091A90414
:100A90000FBEAC013FEF13C00FB6F8948091A604CF
:100AA0009091A704A091A804B091A9040FBE841B43
:100AB000950B8D52914018F022878FE00DC03EBDFE
:100AC0000DB407FEFDCF2EB52F3F31F322872E3F09
:100AD00011F481E008958DE08583CF018FDF80E000
:100AE0000895CF93DF93EC018E818823C9F08FEFB7
:100AF0008EBD2F8138854FEF04C00DB407FEFDCFAA
:100B00004EBD2F5F3F4FC901019781509240A8F31E
:100B100038872F830DB407FEFDCFCE016FDF1E8215
:100B2000DF91CF910895DF92EF92FF920F931F9381
:100B3000CF93DF93EC01D62E79018A01D2DFCE016B
:100B400057DF0FB6F8948091A6049091A704A09166
:100B5000A804B091A9040FBE9C014FEF4EBD0DB487
:100B600007FEFDCF8EB58F3F81F00FB6F8948091D0
:100B7000A6049091A704A091A804B091A9040FBE67
:100B8000821B930B8C52914048F38D2D80648EBD57
:100B90000DB407FEFDCF28E130E0D801C701022ED9
:100BA00004C0B695A795979587950A94D2F78EBD00
:100BB0000DB407FEFDCF285030408FEF283F380797
:100BC00061F7DD2011F485E906C058E0D51611F46F
:100BD00087E801C08FEF8EBD0DB407FEFDCF90E01A
:100BE0002FEF2EBD0DB407FEFDCF8EB587FF02C0DF
:100BF0009150B9F78A87DF91CF911F910F91FF90A4
:100C0000EF90DF900895BF92CF92DF92EF92FF9224
:100C10000F931F938C01B62E69017A0167E320E0E0
:100C200030E040E050E07FDFC8016B2DA701960166
:100C30007ADF1F910F91FF90EF90DF90CF90BF90E0
:100C40000895CF92DF92EF92FF920F931F93CF936D
:100C5000DF93EC017A018B016901411551056105B2
:100C6000710511F482E150C08B85833039F029E0A1
:100C7000EE0CFF1C001F111F2A95D1F7CE0168E171
:100C8000A801970150DF882311F084E03DC0CE0118
:100C90006EEFA601B9DE882309F437C00FB6F894C9
:100CA0008091A6049091A704A091A804B091A904F2
:100CB0000FBE9C014FEF4EBD0DB407FEFDCF1EB51C
:100CC0001F3F89F00FB6F8948091A6049091A70475
:100CD000A091A804B091A9040FBE821B930B885564
:100CE000924048F31EC0CE016DE020E030E040E0CD
:100CF00050E019DF882339F41EBD0DB407FEFDCF87
:100D00008EB5882381F084E18D83CE0177DE80E08B
:100D1000DF91CF911F910F91FF90EF90DF90CF90D7
:100D2000089585E1F1CFCE0169DE81E0F1CF8F92A8
:100D30009F92AF92BF92CF92DF92EF92FF920F936A
:100D40001F93CF93DF93EC015A016B014901011509
:100D5000110509F477C0C801820F931F815092409A
:100D600008F06CC08E81882371F088819981AA81F6
:100D7000BB81481759076A077B0729F48F8198853B
:100D80008816990608F5A882B982CA82DB828B850B
:100D9000833039F069E0AA0CBB1CCC1CDD1C6A95C1
:100DA000D1F7CE0161E1A6019501BDDE882319F0DE
:100DB00083E08D8343C0CE0160DE882309F43EC00A
:100DC00018861F8281E08E838FEF8EBD8F8198857C
:100DD0002FEF05C00DB407FEFDCF2EBD019688157F
:100DE0009905C0F398878F83D801119720E030E0F0
:100DF0009FEF0BC00DB407FEFDCF8EB5F701E20FDC
:100E0000F31F80839EBD2F5F3F4F2A173B0790F350
:100E10000DB407FEFDCF8EB5AE0DBF1D8C932F8197
:100E20003885200F311F38872F838985882319F053
:100E30002050324038F0CE0154DE04C0CE01DEDD59
:100E400080E001C081E0DF91CF911F910F91FF9071
:100E5000EF90DF90CF90BF90AF909F908F900895CC
:100E6000EF92FF920F931F93790120E030E000E0B2
:100E700012E05DDF1F910F91FF90EF900895BF92F8
:100E8000CF92DF92EF92FF920F931F93CF93DF9356
:100E9000EC01B62E842F1B8619861E821D824C8380
:100EA0000FB6F8942091A6043091A7044091A804AD
:100EB0005091A9040FBE69010E949117CE019EDDD9
:100EC00023982B98229A219A209A83E58CBD8DB580
:100ED0008E7F8DBD80E09FEF9EBD0DB407FEFDCFE0
:100EE0008F5F8A30C9F7CE0183DD12C00FB6F89448
:100EF0008091A6049091A704A091A804B091A904A0
:100F00000FBE8C199D09815D974010F081E05BC098
:100F1000CE0160E020E030E040E050E004DE182F39
:100F20008A87813019F7CE0168E02AEA31E040E093
:100F300050E0F9DD82FF02C01B8711C080E02FEF77
:100F40002EBD0DB407FEFDCF9EB58F5F8430C1F777
:100F50009A879A3A11F082E036C082E08B878B85BF
:100F6000823021F0EE24FF24870118C0E12CF12CFF
:100F7000012DF0E41F2F12C00FB6F8948091A60443
:100F80009091A704A091A804B091A9040FBE8C1958
:100F90009D09815D974010F088E015C0CE0169E29F
:100FA000A801970130DE8A87882331F78B8582304C
:100FB00021F5CE016AE320E030E040E050E0B3DD0F
:100FC000882331F086E08D83CE0118DD80E01AC0E1
:100FD0008FEF8EBD0DB407FEFDCF8EB5807C803CBB
:100FE00011F483E08B8780E09FEF9EBD0DB407FE78
:100FF000FDCF2EB58F5F8330C1F7CE01FFDCCE0170
:101000006B2DD1DCDF91CF911F910F91FF90EF906D
:10101000DF90CF90BF900895CF93DF93EC01DB0179
:1010200080E090E020E2FD01E80FF91F20830196A7
:101030008B309105C1F757E040E021C02E3219F006
:101040008CE391E007C05A3019F15AE048E017C02C
:101050003217F1F0FC01019634913323C9F754178C
:10106000B8F02132A8F02F3798F4822F81568A31B8
:1010700008F42052FD01E40FF11D20834F5F2991F8
:101080002223E1F690E08C91803219F091E001C0CA
:1010900090E0892FDF91CF9108956F927F928F9288
:1010A0009F92AF92BF92CF92DF92EF92FF920F93F7
:1010B0001F93CF93DF93EC017A018B012C812223C4
:1010C00009F480C08A899B89AC89BD8984179507FA
:1010D000A607B70708F476C085C0E114F10401053E
:1010E000110549F41D821E821F82188619861A86F0
:1010F0001B861C8665C029853A854B855C85EA8DF3
:10110000FB8D858590E0099621503040404050404D
:1011100039014A01082E04C0969487947794679405
:101120000A94D2F72F5F3F4F4F4F5F4F0894E1086B
:10113000F108010911095701680104C0D694C79448
:10114000B794A7948A95D2F70894E11CF11C011D6D
:10115000111DA614B704C804D90428F021153105BF
:101160004105510549F48E899F89A88DB98D8D83DC
:101170009E83AF83B88716C0A618B708C808D908D9
:1011800011C04D815E816F8178858A8D9B8D940120
:101190000E9400120894A108B108C108D108882350
:1011A00031F410C085E0882E912C8C0E9D1EA11468
:1011B000B104C104D10429F7E986FA860B871C879C
:1011C00081E001C080E0DF91CF911F910F91FF90EE
:1011D000EF90DF90CF90BF90AF909F908F907F90D7
:1011E0006F900895223009F078CFE6CFCF93DF9348
:1011F000EC01462F6D857E858F859889E9D68823F9
:1012000019F420E030E00AC08989282F30E095E009
:10121000220F331F9A95E1F7285F3D4FC901DF91F7
:10122000CF9108950F931F93CF93DF938C01FC010F
:1012300084818823B9F1838187FF32C0C80161E0CE
:10124000D5DFEC01009771F1F8018481823040F420
:1012500082899389A489B5898C8F9D8FAE8FBF8F2A
:10126000F80186899789A08DB18D9B8F8A8FCD01DA
:10127000AA27BB279D8B8C8BE0910602F091070279
:10128000309751F0BE016A5E7F4FCE0148960995B6
:10129000888D998D9B8B8A8BF80183818F778383CF
:1012A00039D601C080E0DF91CF911F910F91089551
:1012B0006F927F928F929F92AF92BF92CF92DF9266
:1012C000EF92FF920F931F93DF93CF9300D000D044
:1012D000CDB7DEB77C015A016B01DC0114968C910D
:1012E0001497813009F08BC013968C9181FF87C0D1
:1012F0009AC00097A105B10511F481E081C0F70102
:101300006184728483849484C701B601A501C5DE1B
:10131000882309F474C0D7015A968D919C915B97EC
:10132000A114B104C104D10489F456964D915D9184
:101330006D917C9159970E947212882309F45FC0C5
:10134000F701168A178A108E118E3CC0D7011596A8
:101350004D915D916D917C9118979E012F5F3F4F4C
:101360000E940012882309F44AC0D7015A96ED91D1
:10137000FC915B9749815A816B817C81878980319F
:1013800029F088EF9FEFAFEFBFE004C088EF9FEF39
:10139000A0E0B0E0481759076A077B0798F4CF012F
:1013A0000E947212882359F1F701458156816781A5
:1013B0007085828D938D0FEF1FEF2FEF3FE085D764
:1013C0008823E9F0D7015296AD92BD92CD92DC927E
:1013D000559713968C911397806813968C93C70139
:1013E00021DF882361F0B601A5016A147B048C0417
:1013F0009D0410F4B401A301C7014FDE01C080E0D9
:101400000F900F900F900F90CF91DF911F910F9140
:10141000FF90EF90DF90CF90BF90AF909F908F9014
:101420007F906F900895F70182899389A489B58987
:1014300084179507A607B70708F05BCFE0CF2F9278
:101440003F924F925F926F927F928F929F92AF9254
:10145000BF92CF92DF92EF92FF920F931F93CF93A1
:10146000DF93EC012A018C81882309F4C4C08B81AD
:1014700080FFC1C0D6C025014E185F084B0175E042
:10148000272E312C2C0E3D1E3201AFC029853A8506
:101490004B855C856FEFA62E61E0B62EA222B322AB
:1014A0008C8179018A0199E016950795F794E79464
:1014B0009A95D1F7EA8DFB8D823049F4428D538D98
:1014C000648D758D4E0D5F1D601F711F3EC0D480F1
:1014D000DA94DE20A114B104D1F4DD20C1F4211589
:1014E00031054105510549F48E899F89A88DB98D33
:1014F0008D839E83AF83B8870AC04D815E816F81E3
:101500007885CF0191017CD7882309F474C0EA8DD6
:10151000FB8D4D815E816F817885425050406040E7
:101520007040058404C0440F551F661F771F0A943E
:10153000D2F786859785A089B189480F591F6A1F00
:101540007B1F4D0D511D611D711D80E092E08A19B8
:101550009B0963018615970508F46C018B8186FD54
:1015600006C080E0C81682E0D80609F072C08091FB
:101570004C0190914D01A0914E01B0914F0148173F
:1015800059076A077B0709F464C0809108049091A9
:101590000904950186017401CADB882361F18C0C72
:1015A0009D1C12C09501285F3D4FA9014C0D5D1D8A
:1015B000D401F90102C081918D93E417F507D9F7A1
:1015C000E21BF30B8E0E9F1E960140E050E08985D2
:1015D0009A85AB85BC85820F931FA41FB51F898791
:1015E0009A87AB87BC876C187D086114710409F079
:1015F0004DCFA20102C04FEF5FEFCA01DF91CF9143
:101600001F910F91FF90EF90DF90CF90BF90AF9020
:101610009F908F907F906F905F904F903F902F9012
:101620000895AA88BB88CC88DD88E984FA840B8574
:101630001C859A0140E050E0D601C5018E199F0932
:10164000A00BB10B82179307A407B50708F413CFBB
:1016500015CFCB01BA0140E0BBD4882309F0A2CF5B
:10166000CACFCF92DF92EF92FF920F931F93DF9337
:10167000CF930F92CDB7DEB76C01FC01848182302D
:1016800068F0E184F28403851485C601BE016F5FB2
:101690007F4F41E050E0D3DE019769F020E030E079
:1016A000C9010F90CF91DF911F910F91FF90EF90A3
:1016B000DF90CF900895F60181859285A385B4854A
:1016C0004F96A11DB11D81879287A387B487F5E04E
:1016D00016950795F794E794FA95D1F78E2D8F70AC
:1016E000282F30E0E5E0220F331FEA95E1F7285F6D
:1016F0003D4FD6CF0F931F93CF93DF93EC018B0118
:101700008C81882309F040C0FB0187898031B1F4C6
:1017100082E08C831E8A1F8A188E198E808D918D8F
:10172000A0E0B0E045E0880F991FAA1FBB1F4A95B3
:10173000D1F78A8B9B8BAC8BBD8B14C0803221F58B
:1017400083E08C83FB01428D538D648D758D4E8BB0
:101750005F8B688F798F9E012E5E3F4FC80119D72E
:10176000882391F01B8F0A8F81E08B831D821E825C
:101770001F82188619861A861B861C861D861E8661
:101780001F86188A198A01C080E0DF91CF911F91CE
:101790000F9108951F93CF93DF93EC01142FE62F41
:1017A000F0E075E0EE0FFF1F7A95E1F7E85FFD4F7F
:1017B0008385817121F0842F827409F052C0698B76
:1017C00080914C0190914D01A0914E01B0914F013B
:1017D0008D879E87AF87B88B84899589A0E0B0E01C
:1017E000BC0155274427828D938DA0E0B0E0482BA3
:1017F000592B6A2B7B2B4E8B5F8B688F798F838560
:1018000090E088719070009751F4848D958DA68D2D
:10181000B78D8A8B9B8BAC8BBD8B81E00BC04097C7
:1018200001F59E012E5E3F4F8A8D9B8DB2D6882397
:10183000C1F084E08C83812F8F708B831D821E8288
:101840001F82188619861A861B861C8616FD02C002
:1018500081E008C0CE0140E050E060E070E028DDAB
:1018600001C080E0DF91CF911F910895CF93DF9366
:10187000EC019C012B5F3F4F8A8D9B8D41E050E036
:1018800060E070E0F4D68823A1F08E899F89A88D4E
:10189000B98D0097A105B10559F48D819E81AF8165
:1018A000B8858E8B9F8BA88FB98F8B8180688B8337
:1018B00081E0DF91CF9108952F923F924F925F92F6
:1018C0007F928F929F92AF92BF92CF92DF92EF92D0
:1018D000FF920F931F93DF93CF9300D000D000D0DF
:1018E000CDB7DEB76C01162F072F5E834D83DC0169
:1018F00014968C911497813009F06EC113968C91D7
:1019000081FF6AC188C1F60142895389648975895A
:1019100081859285A385B48584179507A607B707A7
:1019200029F0C601BADB882309F456C1812F902F14
:101930009C0129012D803E8014C1D6015A96ED915B
:10194000FC915B97DA01C90119E0B695A7959795C7
:1019500087951A95D1F774807A9478227FEF872E35
:1019600071E0972E82229322772009F04EC08114D5
:10197000910409F04AC0D60115964D915D916D9183
:101980007C911897411551056105710581F45696B2
:101990008D919D910D90BC91A02D0097A105B10551
:1019A00051F1F60185839683A783B0872EC0CF01BE
:1019B0009E012F5F3F4F24D5882319F440E050E06B
:1019C00011C129813A814B815C81D6015A96ED91F2
:1019D000FC915B978789803129F088EF9FEFAFEF0B
:1019E000BFE004C088EF9FEFA0E0B0E02817390700
:1019F0004A075B0728F0C60139DF882331F4ECC0C1
:101A0000F601258336834783508780E092E088196A
:101A1000990951018215930508F45C01D6015A9683
:101A2000ED91FC915B971596ED90FD900D911C91B9
:101A300018978EEF9FEFAFEFBFEFE80EF91E0A1F6A
:101A40001B1F058404C0EE0CFF1C001F111F0A940D
:101A5000D2F786859785A089B189E80EF91E0A1FFD
:101A60001B1FE70CF11C011D111D90E0A91692E04F
:101A7000B90649F580914C0190914D01A0914E011C
:101A8000B0914F018E159F05A007B10761F48FEF4C
:101A90009FEFAFEFBFEF80934C0190934D01A09368
:101AA0004E01B0934F018091080490910904B80150
:101AB000A7019201C6D8882309F48EC0A0E0B2E045
:101AC0004A0E5B1E3CC08114910401F5F60121858C
:101AD00032854385548582899389A489B5892817DD
:101AE00039074A075B0790F015D2882309F474C0C0
:101AF000E0924C01F0924D0100934E0110934F0182
:101B000080910A04816080930A0407C0C801B7016C
:101B100041E05ED2882309F45FC09401285F3D4F05
:101B2000A9014A0D5B1DD201F90102C08D9181937B
:101B3000E417F507D9F7E21BF30B4E0E5F1E2A18C8
:101B40003B08950140E050E0F60181859285A38530
:101B5000B485820F931FA41FB51F81879287A38727
:101B6000B487D60119962D913D914D915C911C97AA
:101B70002114310409F0E1CE52968D919D910D9082
:101B8000BC91A02D82179307A407B50748F4F6016E
:101B9000228B338B448B558B83818068838311C068
:101BA0008091060290910702892B59F08D819E81C8
:101BB000892B39F0D60113968C9113978068139670
:101BC0008C93F601838183FF04C0C6012BDB88233D
:101BD00019F04D815E8106C081E0D60112968C938A
:101BE0004FEF5FEFCA0126960FB6F894DEBF0FBE27
:101BF000CDBFCF91DF911F910F91FF90EF90DF90BC
:101C0000CF90BF90AF909F908F907F905F904F90BC
:101C10003F902F90089582FD76CE88CEDB010D9007
:101C20000020E9F71197A61BB70BAD0145CEDF9356
:101C3000CF930F92CDB7DEB76983BE016F5F7F4F41
:101C400041E050E039DE0F90CF91DF910895DF92AF
:101C5000EF92FF920F931F93CF93DF93EC0106DE79
:101C6000882309F44DC0EA8DFB8DED80FE800F8145
:101C700018858EEF9FEFAFEFBFEFE80EF91E0A1F3A
:101C80001B1F058404C0EE0CFF1C001F111F0A94CB
:101C9000D2F786859785A089B189E80EF91E0A1FBB
:101CA0001B1FD4800894E108F108010911090AC03A
:101CB000C801B7016D0D711D811D911D66D188236D
:101CC000F9F0DA94DD20A1F7EA8DFB8D20E032E017
:101CD00040E050E0058404C0220F331F441F551F0D
:101CE0000A94D2F78A899B89AC89BD89820F931F98
:101CF000A41FB51F8A8B9B8BAC8BBD8B81E001C071
:101D000080E0DF91CF911F910F91FF90EF90DF90D6
:101D100008956F927F928F929F92AF92BF92CF92CF
:101D2000DF92EF92FF920F931F93DF93CF93CDB784
:101D3000DEB72B970FB6F894DEBF0FBECDBF5C01A8
:101D40006B01822EDC0114968C91882309F0CCC0A3
:101D5000CA018E010F5F1F4FB8015ED9882309F4B5
:101D6000C3C0F601828D938DD5015B969C938E93B3
:101D70005A971582168217821086D60119961D92DF
:101D80001D921D921C921C979924380140C0C601D7
:101D900068DCFC01009709F4A7C085E0169507955B
:101DA000F794E7948A95D1F71E2D1F7080818823C0
:101DB00011F0853ED1F4992091F4D50151961C93F0
:101DC000519720914C0130914D0140914E0150911D
:101DD0004F011D962D933D934D935C9350978081B9
:101DE000882399F49924939421C0C301BF014BE047
:101DF00050E00E946A01009751F4882D807380336F
:101E000009F472C0C501612F6CC099249394F60146
:101E1000E184F2840385148582899389A489B58934
:101E2000E816F9060A071B0708F4B1CF882D82715E
:101E3000823109F059C0992039F0C50161E0D6D945
:101E40008C01009781F450C0D60114968C91823099
:101E500009F44AC0C601FBDE882309F445C0F50138
:101E6000118A08E012E080E2D8011D928A95E9F714
:101E7000D801FE0131968BE001900D928150E1F77F
:101E8000E0910602F0910702309739F0B801625FE5
:101E90007F4FC8014096099509C081E298E2F80198
:101EA000918B808B80E098E097878687D801509649
:101EB0008D919C91519753969C938E9352975996DE
:101EC0009C938E9358971E968D919C911F97579631
:101ED0009C938E9356971ED0882331F0C501F5014F
:101EE0006189482D57DC01C080E02B960FB6F8942D
:101EF000DEBF0FBECDBFCF91DF911F910F91FF903D
:101F0000EF90DF90CF90BF90AF909F908F907F9099
:101F10006F90089580910A04882399F140914C01B3
:101F200050914D0160914E0170914F0180910804D4
:101F30009091090428E032E00E942106882319F1DB
:101F400040910B0450910C0460910D0470910E04AB
:101F5000411551056105710591F08091080490913A
:101F6000090428E032E00E942106882361F01092E3
:101F70000B0410920C0410920D0410920E04109297
:101F80000A0481E0089580E00895EF92FF920F9394
:101F90001F937B018C01BEDF8823A9F0E8E0F2E00B
:101FA000119284E0E830F807D9F7E0924C01F09202
:101FB0004D0100934E0110934F0180910A048160FE
:101FC00080930A0481E01F910F91FF90EF90089594
:101FD000DF92EF92FF920F931F937B018C01D42E1F
:101FE00080914C0190914D01A0914E01B0914F0113
:101FF0008E159F05A007B107B9F08CDF8823D9F0B3
:102000008091080490910904B801A70128E032E00A
:102010000E943007882379F0E0924C01F0924D0144
:1020200000934E0110934F0180910A048D298093F3
:102030000A0481E001C080E01F910F91FF90EF90B2
:10204000DF9008958F929F92AF92BF92CF92DF92CE
:10205000EF92FF920F931F93CF93DF936C01142F96
:102060007093090460930804442321F4882499247C
:1020700054013FC0453008F01AC160E070E080E0D4
:1020800090E040E0A5DF882309F411C1C12FD0E022
:102090002197FE0174E0EE0FFF1F7A95E1F7E85FEC
:1020A000FD4FE254FE4F8081EE5BF14090E08F7770
:1020B0009070892B09F0FBC0E653FE4F808191811F
:1020C000A281B38184369105A105B10508F4EFC062
:1020D00064E0CC0FDD1F6A95E1F7C253DC4F8880C6
:1020E0009980AA80BB8081149104A104B10409F4F1
:1020F000DEC0C501B40140E06BDF882309F4D7C01E
:1021000080911302909114028050924009F0CFC048
:1021100020911802222309F4CAC0809116029091DE
:102120001702892B09F4C3C080911502882309F492
:10213000BEC0F601228B809115028483158661E072
:1021400070E007C04F5FF60145874150483008F006
:10215000AEC0F6014585848190E09B01042E02C04B
:10216000220F331F0A94E2F78217930759F7209141
:102170001E0230911F022115310519F040E050E098
:1021800008C020912C0230912D0240912E025091D6
:102190002F02F6012583368347835087E09016028D
:1021A000F090170200E010E0E80CF91C0A1D1B1D5E
:1021B000E38AF48A058B168B8091190290911A029A
:1021C000918F808F6091180270E080E090E00E9413
:1021D00016226E0D7F1D801F911FF601628F738F77
:1021E000848F958F2091190230911A0255E0220FA9
:1021F000331F5A95E1F721503E4F232F3327269561
:1022000040E050E0260F371F481F591F26873787A9
:10221000408B518B80911B0290911C02009719F00A
:10222000A0E0B0E008C08091280290912902A0911E
:102230002A02B0912B0285017401E21AF30A040B01
:10224000150BA8019701280F391F4A1F5B1FF601C4
:10225000058404C056954795379527950A94D2F77B
:102260002187328743875487253FFFE03F07F0E00F
:102270004F07F0E05F0710F48CE006C0255F3F4F8A
:102280004040504028F480E1F601878B81E010C087
:102290008091340290913502A0913602B0913702BC
:1022A000F601828F938FA48FB58F80E2EECF80E00E
:1022B000DF91CF911F910F91FF90EF90DF90CF9022
:1022C000BF90AF909F908F9008954F925F926F92C2
:1022D0007F928F929F92AF92BF92CF92DF92EF92B6
:1022E000FF920F931F93CF93DF93EC016A017B0161
:1022F00028013901423051056105710508F46EC0AD
:1023000089859A85AB85BC850196A11DB11D841771
:102310009507A607B70708F461C02B893C894D894A
:102320005E898F89803129F499278F2D7E2D6D2D1F
:1023300009C0C701B60117E096958795779567950F
:102340001A95D1F74B015C01820E931EA41EB51E97
:1023500080914C0190914D01A0914E01B0914F019F
:1023600088169906AA06BB0631F0C501B40140E003
:102370002FDE882399F18F89803149F4F601F070BE
:10238000EE0FFF1FE85FFD4F518240820DC0F60146
:10239000EF77F070EE0FFF1FEE0FFF1FE85FFD4FAE
:1023A000408251826282738280910A0481608093AC
:1023B0000A048A89823080F08D819E81AF81B88540
:1023C000880E991EAA1EBB1E80920B0490920C04CC
:1023D000A0920D04B0920E0481E001C080E0DF9174
:1023E000CF911F910F91FF90EF90DF90CF90BF9012
:1023F000AF909F908F907F906F905F904F900895D7
:10240000CF92DF92EF92FF920F931F93CF93DF93C0
:10241000EC017A018B01690189859A85AB85BC85C0
:102420000196A11DB11D84179507A607B70708F4EB
:102430004FC02B893C894D895E898F89803129F471
:102440009927812F702F6F2D09C0C801B701E7E0D0
:102450009695879577956795EA95D1F7260F371F5B
:10246000481F591F80914C0190914D01A0914E0140
:10247000B0914F01281739074A075B0731F0CA01AD
:10248000B90140E0A5DD882319F18F89803159F425
:10249000F701F070EE0FFF1FE85FFD4F8081918123
:1024A000A0E0B0E00EC0F701EF77F070EE0FFF1F75
:1024B000EE0FFF1FE85FFD4F80819181A281B38104
:1024C000BF70F60180839183A283B38381E001C052
:1024D00080E0DF91CF911F910F91FF90EF90DF90FF
:1024E000CF900895AF92BF92CF92DF92EF92FF927A
:1024F0000F931F93DF93CF9300D000D0CDB7DEB7FB
:102500006C017A018B0182E090E0A0E0B0E0F6017E
:1025100080839183A283B3835E010894A11CB11CC4
:10252000C601B801A70195016BDF882311F1C6012F
:10253000B801A70100E010E020E030E0C6DE88230B
:10254000C1F0E980FA800B811C81F6018789803116
:1025500029F088EF9FEFAFEFBFE004C088EF9FEF57
:10256000A0E0B0E0E816F9060A071B07C8F281E010
:1025700001C080E00F900F900F900F90CF91DF91EE
:102580001F910F91FF90EF90DF90CF90BF90AF9091
:1025900008954F925F926F927F928F929F92AF9227
:1025A000BF92CF92DF92EF92FF920F931F93DF9330
:1025B000CF9300D000D0CDB7DEB76C0149835A83EA
:1025C0006B837C833901EE24FF2487012E0108945C
:1025D000411C511C812CA2E09A2EA12CB12C4981C6
:1025E0005A816B817C81C60192010ADF882351F1F7
:1025F000D501C401F601058404C0880F991FAA1FE4
:10260000BB1F0A94D2F7E80EF91E0A1F1B1F29816F
:102610003A814B815C818789803129F088EF9FEF77
:10262000AFEFBFE004C088EF9FEFA0E0B0E0281755
:1026300039074A075B0798F2F301E082F1820283CF
:10264000138381E00F900F900F900F90CF91DF9147
:102650001F910F91FF90EF90DF90CF90BF90AF90C0
:102660009F908F907F906F905F904F9008952F92E2
:102670003F924F925F926F927F928F929F92AF9212
:10268000BF92CF92DF92EF92FF920F931F93DF934F
:10269000CF93CDB7DEB72F970FB6F894DEBF0FBE3E
:1026A000CDBF1C014A875B876C877D873F872E875C
:1026B000D9010D911D912D913C9101151105210517
:1026C000310549F0480159010894811C911CA11C55
:1026D000B11C198610C0FC0180809180A280B3805B
:1026E00019868A859B85AC85BD850197A105B105B5
:1026F00011F491E09987D10119968D919D910D90DA
:10270000BC91A02D0196A11DB11D8D839E83AF8329
:10271000B887750164014424552432018E010F5F8E
:102720001F4FF10181859285A385B485481659060E
:102730006A067B0608F08CC08D819E81AF81B885CA
:102740008C159D05AE05BF0550F482E0882E912CB6
:10275000A12CB12CB2E0CB2ED12CE12CF12CC1015B
:10276000B701A60198014CDE882309F471C0898164
:102770009A81AB81BC81A70196012F5F3F4F4F4FDC
:102780005F4F0097A105B10519F049015A010DC02D
:10279000281939094A095B098A859B85AC85BD855D
:1027A000281739074A075B0759F00894411C511C48
:1027B000611C711C0894C11CD11CE11CF11CB1CF1F
:1027C000C101A601B7010FEF1FEF2FEF3FE07DDD45
:1027D000882391F43DC0260137010894410851082F
:1027E00061087108C101B301A201970186016DDD85
:1027F000882371F1730162018C149D04AE04BF043F
:1028000050F3AE85BF854D915D916D917C914115E1
:1028100051056105710531F0C1019501840155DD56
:102820008823B1F0EE85FF8580829182A282B382F7
:10283000F985FF2359F00894811C911CA11CB11C3F
:10284000D1018D929D92AD92BC92139781E001C00F
:1028500080E02F960FB6F894DEBF0FBECDBFCF91AC
:10286000DF911F910F91FF90EF90DF90CF90BF907D
:10287000AF909F908F907F906F905F904F903F9020
:102880002F90089581E08093340460931104109296
:1028900032041092330408950895DF93CF930F927A
:1028A000CDB7DEB7698380913404882389F08091A5
:1028B0003304803288F480913204E82FF0E0EE5E39
:1028C000FB4F60838F5F809332048093330404C096
:1028D000CE01019661E074D00F90CF91DF91089501
:1028E000DCCF08958091110462E174E040913304DB
:1028F00021E023D010923204109233041092340459
:10290000089510920F041092100410923204109245
:10291000330400C010923604589A599AE9EBF0E05B
:1029200080818E7F808380818D7F808388E4809307
:10293000B80085E48093BC0008951F93582F122F90
:10294000413210F081E03AC0809136048823E1F7EB
:1029500082E0809336048FEF8093A10410925C0490
:1029600040935D04ACE3B4E0FB0102C081918D9320
:102970008E2F861B8417D0F3852F90E0880F991F28
:102980008093370485EE8093BC00112321F0809161
:1029900036048230E1F38091A1048F3F11F480E08E
:1029A0000DC08091A104803211F482E007C08091B3
:1029B000A104803311F084E001C083E01F910895E9
:1029C000482F613210F081E0089580913604843000
:1029D00011F082E0089560937F04AEE5B4E0842FA7
:1029E0009C01F90102C081918D938E2F841B861763
:1029F000D0F380E008951F920F920FB60F9211242A
:102A00002F933F934F935F936F937F938F939F93F6
:102A1000AF93BF93EF93FF938091B90090E0887FCD
:102A200090708036910509F4DCC081369105CCF5B3
:102A30008832910509F47BC089329105B4F4803164
:102A4000910509F46FC0813191053CF4009709F4B8
:102A500031C1089709F039C165C08831910509F481
:102A600066C0809709F031C17DC08034910509F4BA
:102A70009FC08134910544F48033910509F47DC0F1
:102A8000C89709F022C184C08035910509F484C03B
:102A90008835910509F491C08834910509F015C174
:102AA00098C08839910509F4FDC089399105ECF485
:102AB0008837910509F495C0893791054CF488361B
:102AC000910509F48EC08037910509F0FEC089C0D8
:102AD0008838910509F4E6C08039910509F487C06A
:102AE0008038910509F0F1C082C0803B910509F45E
:102AF000B0C0813B91054CF4803A910509F489C03E
:102B0000883A910509F0E1C0A4C0803C910509F420
:102B1000CDC0883C910509F4C9C0883B910509F0F6
:102B2000D4C0ACC0809137048093BB00B9C09091F1
:102B30005C0480915D04981768F490915C04E92F1F
:102B4000F0E0E45CFB4F80818093BB009F5F90933B
:102B50005C04A6C085ED8093BC008091BC0084FD20
:102B6000FCCFB1C080E28093A10485ED8093BC00CE
:102B70008091BC0084FDFCCFA6C080E38093A104BB
:102B800085ED8093BC008091BC0084FDFCCF9BC090
:102B900088E38093A1048AC080915C049091BB007B
:102BA000E82FF0E0E45CFB4F90838F5F80935C0440
:102BB00090915C0480915D0471C080915C0490915F
:102BC000BB00E82FF0E0E45CFB4F90838F5F8093C5
:102BD0005C0485ED8093BC008091BC0084FDFCCF3B
:102BE00072C083E0809336041092A00459C0809193
:102BF000A004803208F056C08091A0049091BB00E0
:102C0000E82FF0E0E058FB4F90838F5F8093A004A3
:102C100047C08091A004803230F4E091A004F0E03D
:102C2000E058FB4F108285ED8093BC008091BC0082
:102C300084FDFCCF109236046091A004E0913A0428
:102C4000F0913B0480E894E070E009951092A004B4
:102C50002DC084E08093360410927E0410927F048D
:102C6000E0913804F0913904099580917F0488231C
:102C700029F481E080937F0410925E0490917E0499
:102C8000E92FF0E0E25AFB4F80818093BB009F5F09
:102C900090937E0490917E0480917F04981710F4A5
:102CA00085EC01C085E88093BC000FC085EC809363
:102CB000BC0009C01092A10485ED8093BC008091F6
:102CC000BC0084FDFCCF10923604FF91EF91BF91C0
:102CD000AF919F918F917F916F915F914F913F91B4
:102CE0002F910F900FBE0F901F901895FC0188E652
:102CF00091E091838083683008F067E067831282F7
:102D00000895FF920F931F93F62E05E314E0FC0144
:102D100067816062C80170E0B5DDC80169E070E0FC
:102D2000DFDDC8016F2DB9DDC801DCDD1F910F911A
:102D3000FF900895FF920F931F93CF93DF93EC01C1
:102D4000062FF42E162F16951877442319F0812F8D
:102D5000866002C0812F84601B811078182BCE0101
:102D6000612FCFDF1B7FCE01612FCBDF102F1F70B4
:102D7000110F110F110FFF2019F0612F666002C0B3
:102D8000612F64601B811078162BCE01612FB9DF93
:102D90001B7FCE01612FB5DFDF91CF911F910F9186
:102DA000FF90089541E0C6CF40E0C4CFFC016381AD
:102DB000862F846083836C60CF01F6CF61E0F4DFFF
:102DC00080EA9FE00197F1F70895FC018381662373
:102DD00011F0806801C08F77838363816078CF01B1
:102DE00090CF0F931F93CF93DF93EC01142F022FFB
:102DF00085E394E086DD6F81606285E394E070E0B6
:102E000041DD85E394E060E070E06ADD85E394E015
:102E10006FEF70E065DD85E394E060E070E060DD19
:102E200085E394E060E070E05BDD85E394E060E0E2
:102E300070E056DD85E394E060E070E051DD85E30D
:102E400094E060E070E04CDD85E394E060E070E0E9
:102E500047DD85E394E060E070E042DD85E394E0E7
:102E600060E070E03DDD85E394E060E070E038DD37
:102E700085E394E037DD6F81606285E394E070E084
:102E800001DD85E394E060E070E02ADD85E394E015
:102E900060E070E025DD85E394E024DD123018F079
:102EA0008A8188608A831D831E82002329F0113065
:102EB00019F48A8184608A8362E370E080E090E0A4
:102EC00059D1CE0164E91DDFCE0160E91ADF65E06A
:102ED00070E080E090E04ED16A816062CE0164DFF4
:102EE00065E070E080E090E045D16A816062CE01EB
:102EF0005BDF65E070E080E090E03CD184E08B83B4
:102F0000CE0154DFCE015ADF82E08C83CE0166E031
:102F10004BDFCE0161E059DFDF91CF911F910F911F
:102F20000895893170F4ECE4F1E0880FE80FF11DA9
:102F30009591E491F0E02FB7F8948181892B8183FA
:102F40002FBF0895E93150F4EE0FE155F84E099482
:102F5000E93120F4EE0FEF51F84E09940895289AC4
:102F60000895299A08952A9A08952B9A08952F9AD8
:102F70006AC0589A58C0599A08955A9A08955B9A07
:102F80000895469A66C0479A6AC05E9A08955F9A05
:102F90006CC02C9A08952D9A4AC02E9A4EC08F9AD2
:102FA00008958E9A08958D9A08958C9A0895899A15
:102FB0000895889A08955C9A08955D9A0895769A7E
:102FC000089528980895299808952A9808952B9887
:102FD00008952F9838C0589826C0599808955A983F
:102FE00008955B980895469834C0479838C05E9815
:102FF00008955F983AC02C9808952D9818C02E987F
:103000001CC08F9808958E9808958D9808958C9877
:10301000089589980895889808955C9808955D9812
:10302000089576980895E4B5EF7DE4BD0895E091A4
:103030008000EF77E09380000895E0918000EF7DBD
:10304000E09380000895E0918000E77FE0938000A6
:103050000895E0919000EF77E09390000895E0915B
:10306000C000EF77E093C0000895E091C200E77FD1
:10307000E093C20008951DBA109268001CBC10BEF7
:103080001FBA10927A0010926E0010926F00109288
:103090007100109272001092C900ECEBF0E0108207
:1030A00014B817B81AB81DB810BA108215B818B8E5
:1030B0001BB81EB811BA0895F89480E197E2019701
:1030C000F1F781E08093E00080E28093D8001092D5
:1030D000C90080E395E70197F1F7CDDF0C94003F3D
:1030E0000895F894C8DF80E395E70197F1F70C9411
:1030F000000008958F938FB78F938091AA048A5F01
:103100008D37D0F48093AA048091A6048E5F8093BB
:10311000A604D8F08091A7048F4F8093A704A8F04D
:103120008091A8048F4F8093A80478F08091A9041F
:103130008F4F8093A90409C087578093AA04809178
:10314000A6048D5F8093A60428F78091A204885F6F
:103150008093A20458F08091A3048F4F8093A3041E
:1031600028F08091A4048F4F8093A4048F918FBF87
:103170008F9118959B01AC0114D0FB010CC011D0AC
:103180006E1B7F0B685E7340D0F32150304040408F
:103190005040E851FC4F211531054105510579F7A3
:1031A00008950FB6F89466B515B27091A204809197
:1031B000A3049091A4040FBE10FE05C06F3F19F048
:1031C000785F8F4F9F4F11240024660F001C660FFD
:1031D000001C660F001C702908951F93CF93DF9386
:1031E000182FEB019EDE1A3009F441C01B3040F469
:1031F000153071F0193089F1143009F048C025C03C
:103200001E3089F01F30B9F01C3009F040C037C0C3
:10321000209721F4589884B58F7D03C0C8BD84B52C
:10322000806284BD3CC0D0938900C09388008091A7
:103230008000806807C0D0938B00C0938A00809183
:1032400080008062809380002AC0D0938D00C0935C
:103250008C00809180008860F5CFD0939900C09356
:1032600098008091900080688093900018C0C0936F
:10327000CF008091C00080688093C00010C0C093D0
:10328000D2008091C20088608093C20008C0E12F04
:10329000F0E0C038D10514F45BDE01C053DEDF91ED
:1032A000CF911F910895F89483E084BD85BDEEE62B
:1032B000F0E080818160808391E09093800082E0E3
:1032C0008093810090939000809391008093C00040
:1032D00084E08093C1009093C2009093C300109249
:1032E000C40085E880937A0080E880937B00109288
:1032F0007E0010927D0002D0789408958091D800CD
:1033000087FF02C085FF1BC081E08093D70080EA61
:103310008093D80082E089BD09B400FEFDCF80E92A
:103320008093D8001092E00010922205109223059D
:103330001092AE041092E1008DE08093E2000895B7
:103340001F920F920FB60F9211242F933F934F931A
:103350005F936F937F938F939F93AF93BF93EF93FD
:10336000FF931092E9008091E80083FF44C120910F
:10337000F1009091F1004091F1005091F1006091C5
:10338000F1007091F100A091F100B091F10082EF95
:103390008093E800963009F044C0EDEAF1E020E0C7
:1033A000859195918417950711F0359617C08591F1
:1033B00095918617970711F0339610C02591359196
:1033C0004491CD01AF3FB10519F010F08FEF90E0BF
:1033D000841708F4482FF9015EEF04C02F5F2630F0
:1033E000F9F609C18091E800282F30E0C901857005
:1033F0009070892BB9F322FD01C1242F413208F0CE
:1034000020E2922F04C085918093F100915099237E
:10341000D1F7421B5093E800442321F7203211F3E7
:10342000EDC0953061F48EEF8093E8008091E80064
:1034300080FFFCCF842F80688093E300DFC0993049
:1034400009F5222309F0D7C0409322051092AE045B
:103450001092AB048EEF8093E800E7EDF1E091E08D
:103460009093E90085918093EB00882331F085915A
:103470008093EC0085918093ED009F5F953081F7FC
:103480008EE1B4C0983061F4203809F0B4C0809166
:10349000E80080FFFCCF809122058093F10083C07B
:1034A0009132A9F4213A09F0A6C08091E80080FF8A
:1034B000FCCF20E030E0F901E05BFE4F808180939B
:1034C000F1002F5F3F4F27303105A9F76CC09032D4
:1034D000C9F5213209F08FC08091E80082FFFCCF4E
:1034E00020E030E08091F100F901E05BFE4F808345
:1034F0002F5F3F4F27303105A9F78BEF8093E8000E
:103500008EEF8093E8008091500190915101A0913D
:103510005201B091530186389105A105B10519F406
:103520008FE08093AC048091500190915101A09163
:103530005201B091530186399105A105B10509F0F9
:103540005DC0CFDD923251F4213209F054C0409376
:10355000AE048091E80080FFFCCF25C0933241F497
:10356000213209F048C08091E80080FFFCCF1BC0E9
:103570009923E9F48091E80080FFFCCF223811F014
:1035800080E00DC06093E9008091EB0090E025E0C1
:10359000969587952A95E1F781701092E9008093BE
:1035A000F1001092F1008EEF8093E80027C0913077
:1035B00011F0933001F52230F1F4452BE1F4262F80
:1035C0002F77822F81508430B0F48EEF8093E80003
:1035D0002093E900933079F089E18093EB0081E05A
:1035E00090E002C0880F991F2A95E2F78093EA00C5
:1035F0001092EA0003C081E28093EB00FF91EF910B
:10360000BF91AF919F918F917F916F915F914F91FA
:103610003F912F910F900FBE0F901F9018951F9202
:103620000F920FB60F9211242F933F934F935F93F6
:103630006F937F938F939F93AF93BF93EF93FF937A
:103640008091E1001092E100982F83FF11C0109249
:10365000E90081E08093EB001092EC0082E280931D
:10366000ED0088E08093F000109222051092AE04E5
:1036700092FF1DC0809122058823C9F08091AB0480
:10368000882359F081508093AB04882331F484E07F
:103690008093E9008AE38093E8008091AC0488235A
:1036A00031F081508093AC04882309F405DD90FF4C
:1036B0000CC080E18093E2001092220581E08093AB
:1036C000230580EA8093D80019BC809123058823C4
:1036D00079F094FF0DC082E089BD09B400FEFDCFF2
:1036E00080E98093D8008DE08093E200109223055A
:1036F000FF91EF91BF91AF919F918F917F916F91CA
:103700005F914F913F912F910F900FBE0F901F909F
:1037100018959091DA048091DB04292F30E0482F2E
:1037200050E0981710F4205C3F4F241B350BC90163
:1037300008958091DA04E091DB048E1719F4EFEF1D
:10374000FFEF06C0F0E0E452FB4F8081E82FF0E08D
:10375000CF0108959091DA048091DB04981719F451
:103760002FEF3FEF0FC02091DB042F5F203408F0D4
:1037700020E0E22FF0E0E452FB4F80812093DB0455
:10378000282F30E0C90108958091DB048093DA048A
:1037900008951F920F920FB60F9211242F938F93BB
:1037A0009F93EF93FF932091CE009091DA049F5F57
:1037B000903408F090E08091DB04981739F0E92FFD
:1037C000F0E0E452FB4F20839093DA04FF91EF91F5
:1037D0009F918F912F910F900FBE0F901F90189572
:1037E0001F920F920FB60F9211248F939F93EF9316
:1037F000FF939091B0048091B104981721F488ED63
:103800008093C9000FC09091B1049F5F983208F077
:1038100090E0E92FF0E0EE54FB4F80818093CE00E2
:103820009093B104FF91EF919F918F910F900FBEF4
:103830000F901F9018951F920F920FB60F921124A0
:103840008F93EF93FF931092AF04809157018F3FB6
:1038500029F080915701E82FF0E07ADBFF91EF919A
:103860008F910F900FBE0F901F9018958091C900F7
:1038700083FF24C0809157018F3F49F08091AF04AE
:10388000882329F480915701E82FF0E05BDB9091C9
:10389000B0049F5F983208F090E08091B1048917DE
:1038A000E1F3E92FF0E0EE54FB4F608381E0809379
:1038B000AF049093B00488EF8093C90008951F93DC
:1038C000CF93DF93EB01142F409357014F3F29F023
:1038D000842F27DBE12FF0E03BDBC0FF04C082E058
:1038E0008093C80004C01092C800D695C795219750
:1038F000D093CD00C093CC008091C90083FD10C04F
:103900001092DA041092DB041092B0041092B10409
:103910001092AF0486E08093CA0088ED8093C900BE
:10392000DF91CF911F910895BEDC0E94BA040E94DE
:10393000E503FDCF0F931F93CF93DF938C01EB0132
:1039400009C02196D801ED91FC910190F081E02D04
:10395000C801099568816623A1F7DF91CF911F9176
:103960000F910895EF92FF920F931F93CF93DF93E0
:103970008C017B01EA010CC0D7016D917D01D8015A
:10398000ED91FC910190F081E02DC80109952197FE
:10399000209791F7DF91CF911F910F91FF90EF90BA
:1039A0000895DC01ED91FC910190F081E02D0995E5
:1039B0000895DC01ED91FC910190F081E02D0995D5
:1039C0000895DC01ED91FC910280F381E02D0995D1
:1039D0000895DF93CF9300D0CDB7DEB7DC018DE043
:1039E00089838AE08A83ED91FC9111970480F581A7
:1039F000E02DCD01BE016F5F7F4F42E050E00995A1
:103A00000F900F90CF91DF9108950F931F938C012A
:103A1000D8DFC801DEDF1F910F9108954F925F92AA
:103A20006F927F928F929F92AF92BF92CF92DF92CE
:103A3000EF92FF920F931F93DF93CF93CDB7DEB733
:103A4000A1970FB6F894DEBF0FBECDBF3C016A014F
:103A50007B01411551056105710521F480E389A3BE
:103A600010E227C010E2822E9924AA24BB242E0142
:103A70000894411C511CC701B601A501940101D550
:103A80006A3010F4605D01C0695CF201E10FF11D64
:103A90006083C701B601A5019401F3D4C901DA011D
:103AA0006C017D01C114D104E104F10411F0115045
:103AB000E2CF002329F01150FE01E10FF11D018337
:103AC000812F90E0D301ED91FC91BE016F5F7F4F9C
:103AD000680F791F41E250E0481B590B0480F581C3
:103AE000E02DC3010995A1960FB6F894DEBF0FBE75
:103AF000CDBFCF91DF911F910F91FF90EF90DF909D
:103B0000CF90BF90AF909F908F907F906F905F907D
:103B10004F9008950F9377FD02C000E008C07095A4
:103B20006095509541955F4F6F4F7F4F0DE22AE0B2
:103B300075DF0F9108950F93DC012115310541F4D4
:103B4000ED91FC910190F081E02D642F099507C063
:103B50002A30310511F4DEDF02C000E05FDF0F9193
:103B600008950F931F938C01E6DFC80132DF1F9188
:103B70000F910895AF92BF92CF92DF92EF92FF9292
:103B80000F931F93CF93DF936C017B01DB0114969E
:103B9000AD90BC901597C0E0D0E00DC0D601ED917E
:103BA000FC9100811181C701BE0179D1682FC60146
:103BB000F80109952196CA15DB0580F3DF91CF91B5
:103BC0001F910F91FF90EF90DF90CF90BF90AF903B
:103BD0000895DF93CF930F92CDB7DEB7FC016983D1
:103BE000A081B18114962D913C911597BE016F5F14
:103BF0007F4F41E050E0F90109950F90CF91DF919F
:103C000008950F931F93CF93DF93EB0180912205CB
:103C1000882309F4D5C03FB7F89484E08093E90085
:103C20008091AD04882309F4C0C08091E80085FF2D
:103C3000C6C01092AD04B9C09091E400915F80912C
:103C4000E80085FD13C03FBF8091E400891721F48F
:103C500081E08093AD04B4C080912205882309F4EB
:103C6000AFC03FB7F8940093E900E9CF8091F2002C
:103C7000212F281B822F90E04817590708F4242F82
:103C8000E0E4E21BE03428F4EE0FFF27E65BF14EA0
:103C9000099480C089918C9389918C9389918C939C
:103CA00089918C9389918C9389918C9389918C9330
:103CB00089918C9389918C9389918C9389918C9320
:103CC00089918C9389918C9389918C9389918C9310
:103CD00089918C9389918C9389918C9389918C9300
:103CE00089918C9389918C9389918C9389918C93F0
:103CF00089918C9389918C9389918C9389918C93E0
:103D000089918C9389918C9389918C9389918C93CF
:103D100089918C9389918C9389918C9389918C93BF
:103D200089918C9389918C9389918C9389918C93AF
:103D300089918C9389918C9389918C9389918C939F
:103D400089918C9389918C9389918C9389918C938F
:103D500089918C9389918C9389918C9389918C937F
:103D600089918C9389918C9389918C9389918C936F
:103D700089918C9389918C9389918C9389918C935F
:103D800089918C9389918C9389918C9389918C934F
:103D900089918C938091E80085FD02C07093E800C2
:103DA000421B51096093AB0406C004E010E4A1EF8C
:103DB000B0E07AE363E04115510509F03DCF3FBF24
:103DC000DF91CF911F910F910895DC01FB0140E03D
:103DD00050E002C04F5F5F4F81918823D9F74115B2
:103DE000510541F0ED91FC9111970480F581E02D92
:103DF000CD010995089584E891E090931D05809385
:103E00001C0508957BDA0FB6F8948091A604909172
:103E1000A704A091A804B091A9040FBEAC018091A1
:103E20002205882329F068EC70E080E090E0A2C9C8
:103E300080912305882309F10FB6F8948091A60498
:103E40009091A704A091A804B091A9040FBE9C0171
:103E500010C00FB6F8948091A6049091A704A09189
:103E6000A804B091A9040FBE821B930B8B3F910550
:103E7000A8F480912305882361F70FB6F894809108
:103E8000A6049091A704A091A804B091A9040FBE24
:103E9000841B950B855C994008F4C1CF0895FC0103
:103EA000848195816817790748F40190F081E02DAD
:103EB000309721F0E60FF71F8081089580E0089584
:103EC000FC018081918144C10F931F93CF93DF93B5
:103ED000EC018B016F5F7F4F88819981D1D1009771
:103EE00011F480E005C0998388831B830A8381E0F5
:103EF000DF91CF911F910F910895CF93DF93EC0144
:103F00008A819B818617970758F4CE01DDDF8823CD
:103F100041F08C819D81892B19F4E881F98110820F
:103F200081E0DF91CF910895EF92FF920F931F935D
:103F3000CF93DF93EC017B016C817D8141155105AD
:103F400039F08A01060F171FB801D7DF882341F423
:103F5000CE01DF91CF911F910F91FF90EF900895C7
:103F6000888199812C813D81820F931FB7010E9426
:103F700080011D830C83ECCF0F931F93DF93CF93AE
:103F800000D0CDB7DEB7182F092F69831A82BE0182
:103F90006F5F7F4F41E050E0C7DF812F902F0F9080
:103FA0000F90CF91DF911F910F910895EF92FF92A3
:103FB0000F931F93CF93DF93EC017B018A0141158F
:103FC000510531F4E881F981309789F010820FC0F2
:103FD000BA0193DF28813981882361F421153105E5
:103FE00021F0C901B5D0198218821B821A821D8264
:103FF0001C8206C01D830C83C901B7010E94800189
:10400000CE01DF91CF911F910F91FF90EF90089516
:10401000CF93DF93EC01198218821B821A821D82D2
:104020001C821E826115710549F0DB010D90002094
:10403000E9F71197A61BB70BAD01B8DFDF91CF9160
:1040400008950F931F93CF93DF93BC0182309105A6
:1040500010F462E070E0E0912005F0912105A0E00D
:10406000B0E040E050E024C080819181861797073E
:10407000D0F08617970771F482819381109729F009
:1040800013969C938E9312972CC090932105809346
:10409000200527C04115510519F08417950718F41C
:1040A000EF018D01AC01DF01828193819C01F90157
:1040B0003097D1F641155105F9F0CA01861B970BCF
:1040C0008430910580F48A819B810115110521F0CE
:1040D000F8019383828304C0909321058093200587
:1040E000FE0132962FC0FE01E80FF91F6193719314
:1040F00002979983888326C08DB79EB788579040D2
:10410000209158013091590128173907C8F4AC01A2
:10411000421B530B4617570798F0CB0102964817DE
:10412000590770F0820F931F9093590180935801A3
:1041300090931F0580931E05F9016193719302C04E
:10414000E0E0F0E0CF01DF91CF911F910F91089552
:10415000CF93DF939C01009709F48FC0EC01229765
:104160001B821A82609120057091210561157105ED
:1041700081F488819981820F931F20915801309199
:1041800059012817390739F5D0935901C0935801BF
:1041900074C0DB0140E050E0AC17BD0708F1BB8301
:1041A000AA83FE0121913191E20FF31FAE17BF07E1
:1041B00079F48D919C911197280F391F2E5F3F4FF5
:1041C0003983288312968D919C9113979B838A83C0
:1041D0004115510571F4D0932105C09320054DC0C0
:1041E00012968D919C911397AD01009711F0DC010F
:1041F000D3CFDA011396DC93CE931297FA01219173
:104200003191E20FF31FCE17DF0769F4888199819E
:10421000280F391F2E5F3F4FFA01318320838A8197
:104220009B8193838283E0E0F0E0DB0112968D9125
:104230009C911397009719F0BC01FD01F6CFAB01DB
:104240004E5F5F4FDB018D919C91840F951F2091F4
:104250005801309159012817390779F4309729F41A
:10426000109221051092200502C013821282425042
:1042700050405093590140935801DF91CF910895D8
:104280006F927F928F929F92AF92BF92CF92DF9266
:10429000EF92FF920F931F93CF93DF938C010097C0
:1042A00021F4CB01CEDE8C01B1C08EEFE82E8FEF72
:1042B000F82EE00EF11E5801A60EB71EAE14BF0474
:1042C00008F4A2C0D7014D915C911197461757078A
:1042D000B0F04530510508F499C0CA01049786171B
:1042E000970708F493C042505040461B570BF50106
:1042F000419351936D937C93CF012ADF87C04B018B
:10430000841A950A3801640E751EA0912005B0919B
:104310002105CC24DD24E0E0F0E047C0A615B70578
:10432000A9F5CD91DC911197CE01029688159905DA
:1043300068F1CE0188199909029612962C9112976C
:1043400013963C91059758F0F50122833383C819E1
:10435000D909D183C083D7016D937C9309C04E5F87
:104360005F4F4C0F5D1FF70151834083C901FC0172
:10437000C114D10431F0D6011396FC93EE93129739
:1043800045C0F0932105E093200540C08D919C919C
:104390001197E817F90708F4FC016D0112968C914A
:1043A000129713969C919C01D901109709F0B6CFF2
:1043B000809158019091590186159705B1F4E6173F
:1043C000F70798F48DB79EB788579040A816B9069E
:1043D000D8F4B0925901A0925801B0921F05A09252
:1043E0001E05F7017183608311C0CB012ADEEC0149
:1043F000009751F0D7014D915C91B8010E9477016F
:10440000C801A6DE8E0102C000E010E0C801DF9105
:10441000CF911F910F91FF90EF90DF90CF90BF90C1
:10442000AF909F908F907F906F900895629FD00182
:10443000739FF001829FE00DF11D649FE00DF11D5F
:10444000929FF00D839FF00D749FF00D659FF00D0E
:104450009927729FB00DE11DF91F639FB00DE11DFB
:10446000F91FBD01CF0111240895991B79E004C003
:10447000991F961708F0961B881F7A95C9F78095A3
:104480000895A1E21A2EAA1BBB1BFD010DC0AA1F95
:10449000BB1FEE1FFF1FA217B307E407F50720F0AD
:1044A000A21BB30BE40BF50B661F771F881F991F28
:1044B0001A9469F760957095809590959B01AC0171
:1044C000BD01CF010895EE0FFF1F0590F491E02D7F
:1044D000099412E0C0E8D2E003C0FE01F6DF2296A4
:0A44E000C238D107D1F7F894FFCFDE
:1044EA00006572726F723A20002C00720053657474
:1044FA007570004C6F6767696E6720746F3A2000A9
:10450A0046696C656E616D653A20004C4F474752AB
:10451A005230302E435356000E000F0004000F0095
:10452A000E000D00180009000A000100FFFFFFFF3E
:10453A0000E10000000008FF240500000000170E3B
:10454A000E0EB21C00000000D2169A1CB21C00000B
:10455A000000361C9A1CB21C891BAA1BC41B991B7F
:0A456A0000000000E91DE51E011E1F
:00000001FF
