:10000000A4C00000BDC00000BBC00000B9C000001B
:10001000B7C00000B5C00000B3C00000B1C0000010
:10002000AFC00000ADC0000005C30000C9C20000A1
:10003000A7C00000A5C00000A3C00000A1C0000030
:100040009FC000009DC000009BC0000099C0000040
:1000500097C0000095C0000093C0000091C0000050
:100060008FC00000ADC000008BC0000089C0000040
:1000700087C0000085C0000083C0000081C0000070
:100080007FC000007DC000007BC0000079C0000080
:1000900077C0000075C0000073C0000071C0000090
:1000A0006FC000006DC000006BC0000012011001A5
:1000B00002000008EB034B200100010200010902CD
:1000C0003E00020100C032090400000102020100EA
:1000D000052400100104240206052406000107057A
:1000E00082030800FF09040100020A00000007055E
:1000F0000402100001070583021000010403090433
:1001000018034400650061006E0020004300610098
:100110006D00650072006100000030034C00550066
:100120004600410020005500530042002D005200BF
:1001300053003200330032002000410064006100AF
:100140007000740065007200000011241FBECFEF24
:10015000DAE0DEBFCDBF11E0A0E0B1E0E4E6FFE011
:1001600002C005900D92A631B107D9F712E0A6E1C1
:10017000B1E001C01D92AD32B107E1F7BAD0F0C6CF
:100180003FCF9C01DC01AE57BF4FED91FC91119721
:1001900041911196FC93EE9380589F4FE817F90711
:1001A00011F42D933C939FB7F894F901EC57FF4F4E
:1001B0008081815080839FBF842F08950895089582
:1001C0001F920F920FB60F9211242F938F939F932C
:1001D000EF93FF939091CE00809124028430F1F44C
:1001E000E0919601F09197019083E0919601F09152
:1001F0009701CF01019690939701809396018659BC
:10020000914021F486E191E0928381839FB7F89435
:1002100080919A018F5F80939A019FBFFF91EF9128
:100220009F918F912F910F900FBE0F901F90189557
:100230001F93FC018489813019F0823019F404C0C5
:1002400010E303C010E001C010E28389823009F49A
:1002500018608589873031F0883031F0863029F494
:10026000126003C0146001C016601092C9001092A1
:10027000C8001092CA002785308941895289CA0175
:10028000B9019695879577956795605C7D4B804F12
:100290009F4F44D6215030403093CD002093CC0066
:1002A0001093CA0082E08093C80088E98093C90057
:1002B0001F91089580E091E0C4C580E091E078C589
:1002C00084B7877F84BF88E10FB6F894809360007D
:1002D000109260000FBE80E090E020E80FB6F89426
:1002E00020936100809361000FBE54D184E085BDEE
:1002F00008951F93CF93DF93E3DF2FB7F8948BE933
:1003000091E090931C0280931B0290931E028093B5
:100310001D022FBF2FB7F89486E191E090939701CB
:100320008093960190939901809398012FBF7894C0
:10033000CBE9D1E08FB7F89490911F028FBF90382E
:1003400009F180E091E091D497FD1CC0E0911B027F
:10035000F0911C028083E0911B02F0911C02CF01FE
:10036000019690931C0280931B028B51924011F4D2
:10037000D283C1839FB7F89480911F028F5F8093CF
:100380001F029FBF8FB7F89410919A018FBFA89951
:1003900002C0193C60F0A89A08C086E191E0F1DE45
:1003A000682F80E091E0DFD411501123B1F78FB7AF
:1003B000F89490911F028FBF992351F08BE991E03F
:1003C000E0DE982F8091C80085FFFCCF9093CE008F
:1003D00080E091E0B8D435D4ADCFDA01923049F065
:1003E000933061F09130F9F4ECEAF0E022E130E092
:1003F0001EC0EEEBF0E02EE330E019C0813049F092
:10040000813018F0823079F408C0ECEFF0E084918C
:1004100007C0E0E0F1E0849103C0EAE1F1E08491FB
:10042000282F30E004C0E0E0F0E020E030E0ED9381
:10043000FC93C90108958093E9008091EB008160ED
:100440008093EB001092ED006093EC004093ED0080
:100450008091EE00881F8827881F089580912502CB
:1004600088239CF404C0809124028823B9F08091F1
:10047000E80082FFF8CF8091E8008B778093E80056
:10048000089580912402882349F08091E80080FF3C
:10049000F8CF8091E8008E778093E800089540912E
:1004A000E4005091E50024E68091EC0080FF05C057
:1004B0008091E80080FF05C022C08091E80082FDA5
:1004C0001EC080912402882311F482E008958530B3
:1004D00011F483E008958091EB0085FF02C081E074
:1004E00008958091E4009091E50084179507E1F26A
:1004F000222311F484E008952150AC01D5CF80E08F
:10050000089551D058D08091D800982F9F7790931C
:10051000D80080688093D8008AE482BF19BC89B56E
:10052000826089BD09B400FEFDCF8091D8008F7D27
:100530008093D8001092240210922202109221027D
:10054000109220028091E0008B7F8093E0008091E8
:10055000D80081608093D80080E060E042E06BDFEB
:100560008091E1008E7F8093E1008091E2008160C4
:100570008093E2008091E20088608093E2008091A5
:10058000E0008E7F8093E0008091D80080618093AE
:10059000D8000895E7EDF0E080818160808381E0FC
:1005A00080932302AECFE8EDF0E080818E7F8083E0
:1005B0001092E20008951092DA001092E10008957E
:1005C0001F920F920FB60F9211241F932F933F93F8
:1005D0004F935F936F937F938F939F93AF93BF934B
:1005E000EF93FF93E9EEF0E0108117701082E0EFD7
:1005F000F0E08081877F80837894E2D0F894A9EE40
:10060000B0E01C92E0EFF0E08081886080831C9372
:10061000FF91EF91BF91AF919F918F917F916F91DA
:100620005F914F913F912F911F910F900FBE0F90AF
:100630001F9018951F920F920FB60F9211242F93AF
:100640003F934F935F936F937F938F939F93AF935A
:10065000BF93EF93FF938091DA0080FF15C08091E4
:10066000D80080FF11C08091DA008E7F8093DA007D
:100670008091D90080FF05C081E0809324029EDD37
:1006800003C0109224029BDD8091E10080FF1DC019
:100690008091E20080FF19C08091E1008E7F8093FD
:1006A000E1008091E2008E7F8093E2008091E20081
:1006B00080618093E2008091D80080628093D800AE
:1006C00019BC85E080932402A7D18091E10084FFCA
:1006D0002DC08091E20084FF29C019BC89B58260D9
:1006E00089BD09B400FEFDCF8091D8008F7D809335
:1006F000D8008091E1008F7E8093E1008091E2003C
:100700008F7E8093E2008091E20081608093E2001E
:1007100080912202882331F48091E30087FD02C09A
:1007200081E001C084E08093240276D18091E100D1
:1007300083FF27C08091E20083FF23C08091E10006
:10074000877F8093E10082E080932402109222024E
:100750008091E1008E7F8093E1008091E2008E7FA6
:100760008093E2008091E20080618093E20080E06B
:1007700060E042E060DE8091F00088608093F000ED
:100780004BD18091E10082FF0AC08091E20082FF9C
:1007900006C08091E1008B7F8093E1003DD1FF9105
:1007A000EF91BF91AF919F918F917F916F915F91E9
:1007B0004F913F912F910F900FBE0F901F90189562
:1007C0000F931F93DF93CF9300D0CDB7DEB7E5E251
:1007D000F2E08091F100819382E0ED32F807C9F7F1
:1007E00069DD8091E80083FF02C18091250230918C
:1007F0002602353009F487C0363040F43130C9F173
:10080000313070F0333009F0F2C033C0383009F4C1
:10081000C0C0393009F4CFC0363009F0E8C099C003
:10082000803821F0823809F0E2C008C0909120029F
:1008300080912102882399F0926011C08091290251
:1008400087708093E9008091EB0090E025E0969519
:1008500087952A95E1F7982F91701092E900809181
:10086000E800877F8093E8009093F1001092F100F8
:100870009BC0882319F0823009F0B9C090E08F71D5
:100880009070009721F0029709F0B1C00CC08091E0
:100890002702813009F0ABC010922102333069F594
:1008A000809321022AC080912702882331F520916C
:1008B0002902277009F49BC02093E9008091EB0086
:1008C00080FF1BC0333021F48091EB00806213C0A5
:1008D0008091EB0080618093EB0081E090E002C0AA
:1008E000880F991F2A95E2F78093EA001092EA0098
:1008F0008091EB0088608093EB001092E90080917A
:10090000E800877F54C0882309F071C01091270246
:100910001F770FB7F8948091E800877F8093E800F5
:100920009DDD8091E80080FFFCCF112311F482E06F
:1009300001C083E0809324028091E3008078182B2B
:100940001093E3008091E30080688093E3000FBF81
:100950004EC08058823008F04AC0809127029091A2
:10096000280260912902AE014F5F5F4F36DDBC0166
:10097000009709F43CC08091E800877F8093E800ED
:1009800089819A81B0D08091E8008B778093E800CC
:100990002EC0803861F58091E800877F8093E80061
:1009A000809122028093F1008091E8008E778093FD
:1009B000E80054DD1CC08823D1F4909127029230C6
:1009C000B0F48091E800877F8093E8009093220242
:1009D00045DD80912202882331F48091E30087FD78
:1009E00002C081E001C084E08093240266DC809133
:1009F000E80083FF0AC08091EB0080628093EB00E7
:100A00008091E800877F8093E8000F900F90CF914E
:100A1000DF911F910F91089508959C0140912B0241
:100A200050912C024617570718F4F90190E045C081
:100A30006115710511F0AB01F8CF8091E8008E7758
:100A40008093E80040E050E0F0CF809124028823BA
:100A500009F445C0853009F444C08091E80083FF63
:100A600002C081E008958091E80082FD32C080914B
:100A7000E80080FF22C08091F3009091F200782F6F
:100A800060E0292F30E0262B372B07C0819180931F
:100A9000F100415050402F5F3F4F4115510519F073
:100AA0002830310598F390E02830310509F491E0C1
:100AB0008091E8008E778093E8004115510529F672
:100AC000992319F606C080912402882341F08530CD
:100AD00041F08091E80082FFF6CF80E0089582E047
:100AE000089583E008959C0140912B0250912C02BF
:100AF0004617570710F4E0E046C06115710511F084
:100B0000AB01F9CF8091E8008E778093E80040E058
:100B100050E0F1CF80912402882309F448C0853049
:100B200009F447C08091E80083FF02C081E0089586
:100B30008091E80082FD35C08091E80080FF23C0ED
:100B40008091F3009091F200782F60E0892F90E07F
:100B5000862B972B09C0F9012F5F3F4FE491E0935B
:100B6000F1004150504001964115510519F088306F
:100B7000910588F3E0E0089709F4E1E08091E8004E
:100B80008E778093E8004115510509F0C3CFEE231D
:100B900009F0C0CF06C080912402882341F085303F
:100BA00041F08091E80082FFF6CF80E0089582E076
:100BB000089583E008959C016115710529F48091E1
:100BC000E8008B778093E800F90127C08091240228
:100BD000882399F1853099F18091E80083FF02C064
:100BE00081E008958091E80082FFF0CF06C08091F7
:100BF000F10081936150704059F02091F300809191
:100C0000F200322F20E090E0822B932B892B79F792
:100C10008091E8008B778093E80061157105B1F64B
:100C200006C080912402882341F0853041F08091F4
:100C3000E80080FFF6CF80E0089582E0089583E029
:100C400008951F9380912402882361F01091E90098
:100C50001092E9008091E80083FF01C0B1DD1770B8
:100C60001093E9001F9108950895FC0180912402DA
:100C7000843091F587859089A189B2890097A10573
:100C8000B10551F185818093E9008091E80082FFF0
:100C900023C04091F3002091F200942F80E030E0D7
:100CA000822B932B892B19F46FEF7FEF04C0809177
:100CB000F100682F70E04091F3002091F200942F32
:100CC00080E030E0822B932B892B41F48091E80067
:100CD0008B778093E80002C06FEF7FEFCB01089520
:100CE000FC0180912402843049F587859089A1898F
:100CF000B2890097A105B10509F181818093E900CE
:100D00004091F3002091F200942F80E030E0822B9C
:100D1000932B892BA9F09091E8008091E8008E77C1
:100D20008093E80095FD0CC0BADB982F882349F426
:100D30008091E8008E778093E80003C092E001C0C4
:100D400090E0892F0895FC0180912402843051F4B1
:100D500087859089A189B2890097A105B10511F015
:100D6000CF01BECF08951F93FC01162F809124025E
:100D70008430D9F487859089A189B2890097A1052B
:100D8000B10599F081818093E9008091E80085FDAB
:100D900008C08091E8008E778093E80080DB88238C
:100DA00029F41093F10080E001C082E01F910895C2
:100DB0001F93CF93DF93EC010D96FC0189E0DF01D7
:100DC0001D928A95E9F711E08981181729F4EA81C3
:100DD000FB818C8162E010C08D81181731F4EE81A7
:100DE000FF81888562E030E008C08985181709F521
:100DF000EA85FB858C8563E031E0882311F440E0CF
:100E000001C044E020E088E090E003C02F5F880F3D
:100E1000991F8E179F07D0F36295660F660F607C4F
:100E2000632B42602295207F422B812F04DB882395
:100E300021F01F5F173041F681E0DF91CF911F91C4
:100E40000895CF93DF93EC018091E80083FF63C0A6
:100E5000888190E02091290230912A0228173907D1
:100E600009F059C080912602813261F0823220F46B
:100E7000803209F050C01BC0823279F1833209F010
:100E80004AC03BC080912502813A09F044C080915C
:100E9000E800877F8093E800CE010F9667E070E05E
:100EA000BCDD8091E8008B778093E80034C08091AE
:100EB0002502813281F58091E800877F8093E800E8
:100EC000CE010F9667E070E076DE8091E8008E77C5
:100ED0008093E800CE01ACD91EC0809125028132FA
:100EE000D1F48091E800877F8093E800B7DA8091A1
:100EF00027028D87CE01B8DE0EC080912502813297
:100F000051F48091E800877F8093E800A7DACE0152
:100F100060912702A9DEDF91CF910895A1E21A2EF8
:100F2000AA1BBB1BFD010DC0AA1FBB1FEE1FFF1F8D
:100F3000A217B307E407F50720F0A21BB30BE40BDD
:100F4000F50B661F771F881F991F1A9469F7609524
:100F50007095809590959B01AC01BD01CF010895DE
:040F6000F894FFCF33
:100F6400000310000004100000020800000000004C
:060F740000000000000077
:00000001FF
